:200000000000000000000000000000000000000000000000000000000000000000000000E0
:200020000000000000000000000000000000000000000000000000000000000000000000C0
:200040000000000000000000000000000000000000000000000000000000000000000000A0
:20006000000000000000000000000000000000000000000000000000000000000000000080
:20008000000000000000000000000000000000000000000000000000000000000000000060
:2000A000000000000000000000000000000000000000000000000000000000000000000040
:2000C000000000000000000000000000000000000000000000000000000000000000000020
:2000E000000000000000000000000000000000000000000000000000000000000000000000
:200100000000000000000000000000000000000000000000000000000000000000000000DF
:200120000000000000000000000000000000000000000000000000000000000000000000BF
:2001400000000000000000000000000000000000000000000000000000000000000000009F
:2001600000000000000000000000000000000000000000000000000000000000000000007F
:2001800000000000000000000000000000000000222222222222222222222222222222223F
:2001A0002222222222222222222222222222222222222222222222222222222222222222FF
:2001C0002222222222222222222222222222222222222222222222222222222222222222DF
:2001E0002222222222222222222222222222222222222222222222222222222222222222BF
:2002000022222222222222222222222222222222222222222222222222222222222222229E
:2002200022222222222222222222222222222222222222222222222222222222222222227E
:2002400022222222222222222222222222222222222222222222222222222222222222225E
:2002600022222222222222222222222222222222222222222222222222222222222222223E
:200280002222222222222222222222222222000000000222222222222222222222222222C6
:2002A0002222222222222222222222222222222222222222222222222222222222222222FE
:2002C000222222222222222222222222222222222222222222222222222222222000000046
:2002E00000000002222222222222222227777722222222222222222277222222227772229B
:200300002222222222222277777222277222222222222222222222222272222222222222FE
:200320002222222222222222222222220000000000000000022222222222222277777702CE
:2003400022222222222222777702222227777022222222222222777777772777702222222F
:2003600022222222222222222777222222222222222222222222222222222200000000008D
:20038000000000000002222222222222207770022222222222222227770222222200002270
:2003A0002222222222227700077702777022222222222222222222222777022222222222D3
:2003C0002222222222222222222220000000000000000000000002222222222222777022D2
:2003E00077772222777722277702777722777222777722222227770222770277707772227F
:20040000277772227772777222770277772222222222222222222222222200000000000095
:2004200000000000000000022222222222777027777772277777722777027770077770277F
:20044000777772222227770222200277777777227777772777777770227007777772222278
:20046000222222222222222222200000000000000000000000000000222222222277707227
:20048000007770777007702777777700227770777007772222277702222222777007770767
:2004A0002007770277700770272027770000222222222222222222222220000000000000C3
:2004C000000000000000000022222777227770277777707770220027777777722277707725
:2004E0007777770222277772222722777027770277777702777027702202227777222222F2
:20050000222222222222222222000000000000000000000000000000022227770277707787
:20052000707770777722222777007777227770777000000222227777777702777027770706
:20054000770777027770277022222220777222222222222222222222220000000000000041
:200560000000000000000000002227777777007777777027777772277772777772777027F3
:2005800077777722222277777777027770277707777777027770277722222777777022222D
:2005A00022222222222222222000000000000000000000000000000000062277777002275C
:2005C000777777227770007777702777777777227777700222222077770007777727777273
:2005E0007777777777772777022227777700222222222222222222222000000000000000E6
:200600000000000000000000000622200000222200000002200022200000220000000002C6
:2006200020000022222222200002220000020000200000000000020002222200000222221E
:200640002222222222222222000000000000000000000000000000000002222222222222BC
:2006600022222222222222222222222222222222222222222222222222222222222222223A
:2006800022222222222222222222222222222222222222222222222200000000000000002A
:2006A00000000000000000000000222222222222222222222222222222222222222222224E
:2006C0002222222222222222222222222222222222222222222222222222222222222222DA
:2006E00022222222222222220000000000000000000000000000040000022222222222201A
:20070000000000022222222222222222222222222222222222222222222222222222222021
:200720000000222222222222222222222222222222222222222222200000000000000000CF
:20074000000000000054454000022222222222206666660222222222222222222222222228
:200760002222222222222222222222222222220066602222222222222222222222222222D9
:2007800022222222222222200000000000000000000000044455555000002222222222005F
:2007A00066666600222222222222222222222222222222222222222222222222222222066B
:2007C000666022222222222222222222222222222222222222222220000000000000000069
:2007E00000000456456566540000222222222206660006600000000000000000002200009D
:200800000020000000022222000000200000000066602000000020000000022222222222A0
:20082000222222222222222000000000000000000000456363633655000022222222220601
:200840006666000006660666606666666020066660006660660022200666600066666000B0
:200860006660006666600066606600222222222222222222222222000000000000000000C2
:2008800000056633333336550000222222222206565656006665056565665666500066663F
:2008A000650656566560000065665606566555005660056566550666566560222222222219
:2008C000222222222222220000000000000000000455633333333655400022222222220060
:2008E00055555550055500555055500555055500555055555500555555005555500555500A
:2009000055505550055550555555002222222222222222222222222000000000000000002C
:200920004555633333336655500022222222220004545540055400455054500545045555F5
:20094000555055505005455455000054500045405450455000554055505002222222222272
:20096000222222222222220000000000000000045445663333333665400222222222220561
:20098000000545500454004440455004440454000000544000000005454000545500455050
:2009A000554044450044505440002222222222222222222222222200000000000000000037
:2009C0004556336663363335000222222222220444444400044444544444444440004444AE
:2009E00044504444022222005454440444444400445004444444004454022222222222220F
:200A0000222222222222220000000000000000000045333366633350000222222222220045
:200A2000444440020044404440444444402004444404444402222220044400004444400426
:200A40004444004444400444440222222222222222222222222222000000000000440000BA
:200A60000000056333636505642222222222222000000022200000000044400000220000D6
:200A80000000000002222222000002200000000000000000000000000002222222222222FE
:200AA000222222222222220000000000000400004555545663665456462222222222222259
:200AC0002222222222222222044444022222222222222222222222222222222222222222D0
:200AE00022222222222222222222222222222222222222222222220000000000004400059F
:200B0000533656546365500346222222222222222222222222222222004444022222222231
:200B2000222222222222222222222222222222222222222222222222222222222222222275
:200B4000222222222222220000000000004000455406355446666565562222222222222285
:200B6000222222222222222222000022222222222222222222222222222222222222222279
:200B80002222222222222222222222222222222222222222222222000000000000044455AA
:200BA000000635650565336366222222222222222222222222222222222222222222222221
:200BC0002222222222222222222222222222222222222222222222222222222222222222D5
:200BE0002222222222222220000000000000044544536564046556666622222222222222C5
:200C00002222222222222222227722222222222222222222222222222277222222222222EA
:200C2000222222222222777222222222222222222222222222222220000400000004445540
:200C40005633365445655556662222222222222222222222222222277777722622221111D7
:200C600011122222222222277777722222222222222222222222777027722222222222225E
:200C80002222222222222222000400000000454563366544456555566622222222222222CB
:200CA000222222222227777777700011111111111111112222277777777700222222222215
:200CC0002222222222227770777722222222222222222222222222220000000000004455FE
:200CE000633335444566566666222222222222222222777777777777700011111111111146
:200D0000111117777777777770000222277777777777222222227770277772222222222210
:200D200022222222222222220000050000000445633336504456553666222222222222776B
:200D40007777777777777700001111111111117777777777777777700022222227777777D2
:200D60007777022222227770227777222222222222222222222222222000004000000445C3
:200D8000563336004463356632222222222222777777777777000004111111111111117798
:200DA0007777777777700000222222222777777777770222222277702227770222222222D5
:200DC0002222222222222222220000000000404563333604446336366222222222222277D4
:200DE000777770000006441111111111111111777777700000002222222222222200077782
:200E000000000222222277702222700222222222222222222222222222000000000044458A
:200E200056633654445366666522222222222277700000222244111111111111111111775C
:200E40007000001111111222222222222222277702277777777777777777777222222222FF
:200E6000222222222222222222000000000045445566366555566563644622222222227723
:200E8000702222226441111111111111111111777011111111111122222222222222277765
:200EA000022777777777777777777770222222222222222222222222200000000000445519
:200EC000555365555633556655405222222222777777777777777777777711111111117714
:200EE000701111111111112222222222222227770227777777777777777777702222222240
:200F0000222222222222222220000040000045555556445563334636455440622222227759
:200F2000777777777777777777770111111111777777777777777777777722222222277783
:200F4000022200000000777000000000222222222222222222222222200000000000045674
:200F600055664553333345305555440426222277777777777777777777770111111111770E
:200F80007777777777777777777702222222277702222272222277702222222222222222B2
:200FA00022222222222222200000000040000056556645337735465005455440004056772D
:200FC0007000000000007770000001111111117777777777777777777777022227777777A8
:200FE0007777777722227770222227222222222222222222222222000000000000000045A2
:20100000566354456654534004444004445550777025441111117770111111111111117764
:2010200070000000000077700000022227777777777707777222777022227772222222220D
:201040002222222222222000000000000440000545665544563333000000004445635477A4
:201060007044411111117770111111111111117770111111111177702222222227777777B3
:201080007777027770227777222777002222222222222222222200000000000000554000C0
:2010A0004656656633333600000000006364457770441111111177701111111111111177DD
:2010C0007011111111117770122222222200077700000277772277770277770222222222D2
:2010E0002222222222200000000000000006540004656363333336000000000533406377AF
:201100007041111111117770111111111111117770111111111177701222222222222777FF
:2011200002222227770277777777700222222222222222222200000000000000000056549F
:20114000000563337733300000000053350533777041111111117770111111111111117719
:20116000701111111111777012222222222227770222222700027777777700222222222274
:2011800022222222200000000000000000000565540456337333600000000563545336779A
:2011A00070111111111177701111111111111177701111111111777012222222222227778F
:2011C00002222222022777777700022222222222222222222000000000000000000000467F
:2011E000654455563336000000000636577777777777777777777777777777711111117702
:20120000701111111111777012222222222227770222222222777777770222222222222294
:20122000222222220000000000000000000000005666536000000002262006546777777749
:20124000777777777777777777777770177777777777777777777777777777722222277714
:201260000227722227777770770222222222222222222222000000000000444500000000D6
:20128000005655000000000222220046677777777777777777777777777777701777777742
:2012A0007777777777777777777777702222277777777022777777707772222222222222B5
:2012C000222222200000000044445555500000000000000000000002222220563600000014
:2012E00000007770000000000000000017777777777777777777777777777770222227771C
:2013000077777027777077702777222222222222222222200000000404554555550000003E
:2013200000000000000000222222225664533441111777001111111111111111110000006B
:201340000000000000777000000000002277777777700077770077702777722222222222A9
:20136000222222200000000044455566654000000000000000000022222222264563544113
:20138000117777011111111111111111111111111111111117777771122222227777777773
:2013A0000000777770027770227770222222222222222200000000044445566666550000C9
:2013C0000000000000000022222222225636541117777001111111111111111111111111A7
:2013E00011111111110077777222222227777700022777700022777022277722222222223A
:201400002222220000000040000455655666600000000000000000222222222263353337A0
:20142000777700111111111111111111111111111111111111111077777222222270000233
:201440002277770022227770222277722222222222222000000000000000046666363400FE
:20146000000000000000002222222222222616777770011111111111111111111111111128
:201480001111111111111110777722222220222222277002222277702222277722222222BD
:2014A0002222200000000000000000456633360000000000000002222222222222267777D2
:2014C000770011111111111111111111111111111111111111111111177772222222222275
:2014E0002222002222227770222222700222222222222000000000000000000066333300ED
:201500000000000000000222222222222277777700011111111111111111111111111111A9
:20152000111111111111111122077722222222222222222222227770222222202222222218
:20154000222220000000000000000000533333000000000000000222222222222227777092
:2015600001111111111111111111111111111111111111111111111022227772222222222F
:201580002222222777777770222222222222222222222000000000000000000453333300B8
:2015A000000000000000222222222222223770001111111111111111111111111111111186
:2015C000111111111111111122222700222222222222222277777770222222222222222223
:2015E0002222000000000000000404005633330000000000000022222222222222360001BE
:20160000111111111111111111111111111111111111111111111111222222022222222242
:201620002222222277777700222222222222222222220000000000000044404456333300E5
:20164000000000000000222222222222263605511111111111111111111777111111111190
:201660001111111111111777222222222222222222222222200000022222222222222222AC
:201680002222000000000000044545455633330000000000000022222222222223655001D2
:2016A0001111111111111111111777011111111111111111111117770222222222222222DA
:2016C0002222222222222222222222222222222222220000000000000054545465633600AC
:2016E000000000000002222222222222556555511111111111111111111777011111111150
:201700001111111111111777077777777777777777772222222222222222222222222222C3
:20172000222200000000000000055555556635000000000000222222222222225555050128
:201740001111111111111111111777011111111111111111111117770777777777777777E1
:201760007777022222222222222222222222222222200000000000000005555654565000D3
:201780000000004555622222222222225550555111111111111111111117770111111111CA
:2017A00011111111111117770777777777777777777702777222222222222222222222229E
:2017C000222000000000000000005563400000444400455555562222222222265505505137
:2017E00011111111111111111117770111111111111111177711177702000000077700009D
:20180000000002777022222222222222222222222200000000000000000004564000004469
:20182000554455566555622222222255555055011111111111111111111777011111111104
:2018400011111117770117770222222227770222222222777022222222222222222222224B
:20186000220000000000000000000000000004454555555565556222222225555055555073
:20188000111111111111111111177701111111111111111777011777022222222777022262
:2018A0002222227770222222222222222222222222000000000000000000000000000455EA
:2018C000556666655566362222225555555555001111111111111111111777011111111116
:2018E00011111117770127770222222227770222222222777022222222222222222222229B
:20190000220000000000000000000000404004555566636555633362222556555555500010
:201920001111111177777777777777777777777777711117770127770227777777777777B6
:2019400077722277702222222222222222222222220000000000000000000044440004442D
:20196000566666665566636222565555555050001111111177777777777777777777777770
:201980007770111777022777022777777777777777702277702222222222222222222222C8
:2019A000220000000000000000000445454440445666666656666366565565555055500642
:2019C000111111117777777777777777777777777770111777022777022777777777777716
:2019E000777022777022222222222222222222222000000000000000000004555545045416
:201A0000456656555555536655655555555500061111111110000000000777777000000040
:201A20000000111777022777022777000777000077702277702222222222222222222222E3
:201A40002000000000000000000045455554444445555554555556665655550505050006ED
:201A6000111111111111111111177777701111111111111777022777022777022777022260
:201A8000777022777022222222222222222222222200000000000000000045555554040473
:201AA000455555405555566655555555555050061111111111111111111770777011111108
:201AC0001111111777022777022777022777022277702277702222222222222222222222DB
:201AE0002200000000000000000005555555404404555540445455666555555050550000F7
:201B00001111111111111111117770177011111111111117770227770227770227770222C6
:201B20007770227770222222222222222222222222000000000000000000054555554040A9
:201B4000445655400455555656655505505005006111111111111111117770177711111107
:201B600011111117770227770227770227770222777022777022222222222222222222223A
:201B8000220000000000044400000455455504040455555404545565665550500505000562
:201BA000011111111111111117777017770111111111112777022777022777022777022229
:201BC0007770227770222222222222222222222222200000000000444000004544554400B7
:201BE000404555554055555656655555000005051111111111111111177700117701111146
:201C000011111027770227770227770227770222777022777022222222222222222222228A
:201C2000222000000000040540000004454400440444555550455555566605000050505066
:201C400001111111111111111777011177711111111112277702277702277702277702228C
:201C600077702227002222222222222222222222222000000000005440000004544500400B
:201C8000404455556445555566660005050505050111111111111111777001117770111164
:201CA000111122277702277702277702277702227770222702222222222222222222222296
:201CC0002222000000000444000000045454404444454555640556656666522205505050CC
:201CE0000111111111111117777011111777111111022227770227770227770227770222D6
:201D0000777022270222222222222222222222222222200000000004500000044445500581
:201D2000040454566545566666635622220505050111111111111117770011111777011162
:201D40001122222777022777022777022777022277702227022222222222222222222222E4
:201D60002222220000000000400000000544550454444555664456656666662222200505E4
:201D800001111111111111777701111111777111122222220002777702277702277707779B
:201DA0007770222202222222222222222222222222222220000000040400000044455640D3
:201DC000044455556355566663633662222200500111111111111777700111111117771283
:201DE0002222222222227770022777022777027777702222222222222222222222222222B4
:201E000022222220000000004400000040545650445555566364556633363666222220503F
:201E2000011111111111777700111111111777722222222222277770222777022777027789
:201E4000770022222222222222222222222222222222222200000000044000000445565074
:201E600004455555633455633336336322222205011111111117777001111111111177772F
:201E8000222222222227770022220002277702200002227772222222222222222222222271
:201EA0002222222200000000005400000044566400445556633545633736333322222200E0
:201EC000011111111777770011111111111127777222222222777702222222222777022291
:201EE00022222277702222222222222222222222222222200000000004440000045456653E
:201F00000444556566354563333633776222222450111117777770011111111111222277A7
:201F20007722222227777002222222222777022222222277702222222222222222222222A7
:201F4000222222200000000004050000404555664045455556354566666333772222222262
:201F6000441111777777001111111111222222277777222277770022222222222777022228
:201F80002222227770222222222222222222222222222220000000000044400004045663B3
:201FA000404044555336333356633373222222222411111777700111111110222222222200
:201FC000077772277770022222222222277702222222222000222222222222222222222299
:201FE00022222220000000000004500000454563600444663333377735563336222222227C
:20200000222101117000111111112222222222222277002270002222222222222777022232
:202020002222222222222222222222222222222222222220000000000004540000045563E6
:202040006000046333367777355663622222222222222221101111121222222222222222BF
:20206000222002222022222222222222220002222222222222222222222222222222222286
:20208000222222200000000000455000004455636400456636537773662222222222222253
:2020A0002222222222222222222222222222222222222222222222222222222222222222E0
:2020C0002222222222222222222222222222222222222222000000000045640000045563F3
:2020E0003625056626467322222222222222222222222222222222222222222222222222E9
:2021000022222222222222222222222222222222222222222222222222222222222222227F
:202120002222222200000000004530000004563336222222225622222222222222222222AD
:2021400022222222222222222222222222222222222222222222222222222222222222223F
:20216000222222222222222222222222222222222222222200000000005550000004663375
:202180003222222222222222222222222222770222222222222222222222222222222222BA
:2021A0002222702222222222222222222222222222222702222222222222222222222222AC
:2021C00022222222000000000000000000055565002222222222222222222222222270701E
:2021E00022222222222222222222222222222222222270222222222222222702222222226C
:202200002222270222222222222222222222222222222222200000000000000000005000C1
:202220000002222222222222222222222222770277027770277027702222277077027070C9
:202240002222707077707070222277702702222277022702277070702222222222222222D2
:2022600022222222200000000000000000000000000122222222222222222222222270228B
:20228000702277022702270222227070707070702222770277027070222227027070222256
:2022A0007070270270707070222222222222222222222222100000000000000000000000AD
:2022C000001012222222222222222222222270227022277077027702222277707070270285
:2022E0002222707027702702222227702702222277022702777027022222222222222222F0
:20230000222222211100000000000000000000000000162222222222222222222222222255
:202320002222222222222222222222222222702222222222222270222222222222222222C1
:20234000702222222222702222222222222222222222222310100000000000000000000018
:20236000100021622222222222222222222222222222222222222222222222222222222212
:202380002222222222222222222222222222222222222222222222222222222222222222FD
:2023A00000000000000000000000000000000000000000000000000000000000000000001D
:2023C0000000000000000000000000000000000000000000000000000000000000000000FD
:2023E0000000000000000000000000000000000000000000000000000000000000000000DD
:202400000000000000000000000000000000000000000000000000000000000000000000BC
:2024200000000000000000000000000000000000000000000000000000000000000000009C
:2024400000000000000000000000000000000000000000000000000000000000000000007C
:2024600000000000000000000000000000000000000000000000000000000000000000005C
:2024800000000000000000000000000000000000000000000000000000000000000000003C
:2024A00000000000000000000000000000000000000000000000000000000000000000001C
:2024C0000000000000000000000000000000000000000000000000000000000000000000FC
:2024E0000000000000000000000000000000000000000000000000000000000000000000DC
:202500000000000000000000000000000000000000000000000000000000000000000000BB
:2025200000000000000000000000000000000000000000000000000000000000000000009B
:2025400000000000000000000000000000000000000000000000000000000000000000007B
:2025600000000000000000000000000000000000000000000000000000000000000000005B
:2025800000000000000000000000000000000000000000000000000000000000000000003B
:2025A00000000000000000000000000000000000000000000000000000000000000000001B
:2025C0000000000000000000000000000000000000000000000000000000000000000000FB
:2025E0000000000000000000000000000000000000000000000000000000000000000000DB
:202600000000000000000000000000000000000000000000000000000000000000000000BA
:2026200000000000000000000000000000000000000000000000000000000000000000009A
:2026400000000000000000000000000000000000000000000000000000000000000000007A
:2026600000000000000000000000000000000000000000000000000000000000000000005A
:2026800000000000000000000000000000000000000000000000000000000000000000003A
:2026A00000000000000000000000000000000000000000000000000000000000000000001A
:2026C0000000000000000000000000000000000000000000000000000000000000000000FA
:2026E0000000000000000000000000000000000000000000000000000000000000000000DA
:20270000000000000000000000000000000000002222222222222222222222222222222299
:20272000222222222222222222222222222222222222222222222222222222222222222259
:20274000222222222222222222222222222222222222222222222222222222222222222239
:20276000222222222222222222222222222222222222222222222222222222222222222219
:202780002222222222222222222222222222222222222222222222222222222222222222F9
:2027A0002222222222222222222222222222222222222222222222222222222222222222D9
:2027C0002222222222222222222222222222222222222222222222222222222222222222B9
:2027E000222222222222222222222222222222222222222222222222222222222222222299
:20280000222222222222222222222222222222222222222222222222222222222222222278
:20282000222222222222222222222222222222222222222222222222222222222222222258
:20284000222222222222222222222222222222222222222222222222222222222222222238
:20286000222222222222222222222222222222222222222222222222222222222222222218
:202880002222222222222222222222222222222222222222222222222222222222222222F8
:2028A0002222222222222222222222222222222222222222222222222222222222222222D8
:2028C0002222222222222222222222222222222222222222222222222222222222222222B8
:2028E000222222222222222222222222222222222222222222222222222222222222222298
:20290000222222222222222222222222222222222222222632222223222222222222222262
:20292000222222222222362222222222222222222222222222222222222222222222222243
:20294000222222222222222222222222222222222222222222222222222222222222222237
:202960002222220000000000006222222222222222222266222663622222222222222222DA
:202980002222222222222222222222222222222222222222222222222222222222222222F7
:2029A000222222222222222222222222222222222261000000000000000062222222222268
:2029C0002222256666553666222222222222222222222222222222222222222222222222A1
:2029E000222222222222222222222222222222222222222222222222222222222222222297
:202A0000220000000000000000000022222222222222256655555665622222222222222266
:202A2000222222222222222222222222222222222222222222222222222222222222222256
:202A40002222222222222222222222222222222220000000000000000000000022222222AE
:202A60002222224556666563522222222222222222222222222222222222222222222222C7
:202A800022222222222222222222222222222222222222222223622222263622222222229D
:202AA000000000000000000000000000002222222266220455566656362222222222222277
:202AC0002222222222222222222222222222222222222222222222222222222222222222B6
:202AE0002222222222663622223366622222220000000000000000000000000000000222C7
:202B000022536665445556666362222222222222222222222222222222222222222222226F
:202B20002222222222222222222222222222222222222222266365416666365222622000C6
:202B4000000000000000000000000000000000222245665555445566663222222222222279
:202B6000222222222222222222222222222222222222222222222222222222222222222215
:202B8000222222222563544655566542220000000000000000000000000000000000000215
:202BA000222456666554455636566222222222222222222222222222222222222222222207
:202BC0002222222222222222222222222222222222222222555644555665550000000000F9
:202BE00000000000000000000000000000000000022205566655545563356222222222224E
:202C0000222222222222222222222222222222222222222222222222222222222222222274
:202C2000222222225564455666554000650000000000000000000000000000000000000058
:202C40000022224556666554563655222222222222222222222222222222222222222222CB
:202C6000222222222222222222222222222222222222222456545556555500436300000005
:202C80000000000000000000000000000000000000022220556666554466552222222222D1
:202CA0002222222222222222222222222222222222222222222222222222222222222222D4
:202CC00022222225544556665540053666400000000000000000000000000000000000009E
:202CE0000000222204563666545665222222222222222222222222222222222222222222C1
:202D00002222222222222222222222222222222222222255555663655405555665000000FC
:202D2000000000000000000000000000000000000000022220456366554565522222222268
:202D4000222222222222222222222222222222222222222222222222222222222222222233
:202D6000222226566556365544566666540000000000000000000000000000000000000093
:202D8000000000222224563665445552222222222222222222222222222222222222222247
:202DA00022222222222222222222222222222222222225555563655445566665000000005E
:202DC00000000000000000000000000000000000000000022222446655545552222222222B
:202DE000222222222222222222222222222222222222222222222222222222222222222293
:202E000022225555563654455666664000000000000000000000000000000000000000003D
:202E20000000000222222446655455552222222222222222222222222222222222222222D7
:202E400022222222222222222222222222222222222545455665445666365400000000003C
:202E60000000000000000000000000000000000000000000222225456655455522222222C7
:202E80002222222222222222222222222222222222222222222222222222222222222222F2
:202EA000222445556654456663650000000000000000000000000000000000000000000005
:202EC000000000002222255456655555222222222222222222222222222222222222222228
:202EE0002222222222222222222222222222222222545556664456633655000000000000A3
:202F00000000000000000000000000000000000000550000222224545665555522222222B3
:202F2000222222222222222222222222222222222222222222222222222222222222222251
:202F4000225555666455663365500000000000000000000000000000000000000000000038
:202F600000333656522221555666555552222222222222222222222222222222222222226A
:202F8000222222222222222222222222222222222255556644556635540000000000000057
:202FA000000000000000000000000000000000000063366665622104556655555222222209
:202FC0002222222222222222222222222222222222222222222222222222222222222222B1
:202FE0002555566545566664500000000000000000000000000000000000000000000000E7
:20300000000566636566550055666555562222222222222222222222222222222222222271
:203020002222222222222222222222222222222225555664455666550000000000000000E6
:203040000000000000000000000000000000000000004666666666645566655656222222FC
:20306000222222222222222222222222222222222222222222222222222222222222222210
:20308000255556445566655400000000336000000000000000000000000000000000000015
:2030A000000000455666665554566655652222222222222222222222222222222222222204
:2030C00022222222222222222222222222222222555566456666546000000566333000002D
:2030E000000000000000000000000000000000000000000046566655555566555662222218
:2031000022222222222222222222222222222222222222222222222222222222222222226F
:20312000555665456665455000056656366000000000000000000000000000000000000083
:203140000000000000555665555556555566222222222222222222222222222222222222EB
:2031600022222222222222222222222222222225565654566664560000656636660000004F
:2031800000000000000000000000000000000000000000000004455666555555555522223D
:2031A00022222222222222222222222222222222222222222222222222222222222222559C
:2031C000556645666644500056666665500000000040000000000000000000000000000078
:2031E000000000000000545666555556655562222222222222222222222222222222222261
:2032000022222222222222222222222222222556566556666545405666666564000000000B
:203220000440444000000000000000000000000000000000000030456666555555555222BD
:203240002222222222222222222222222222222222222222222222222222222222223565D8
:2032600055555666655545556366640000000000045400545000000000000000000000006B
:20328000000000000000310455666555555656222222222222222222222222222222222241
:2032A00022222222222222222222222222225555575566677777555666665000000000005A
:2032C00000454444555400000000000000000000000000000000070556666565555567775E
:2032E0007722222222222222222222222222222222222222222222222222222222265557CD
:203300007776666777775566666400000000000000455444455544000000000000000000C5
:2033200000000000000007775666655556655777772222222222222222222222222222229B
:2033400022222222222222222222222222265777777766677777006665000000000000004B
:20336000044555555666655400000000000044444000000000007777756665665555477721
:203380007700222222222222222222222222222222222222222222222222222222777777BB
:2033A0007777755777770065577000000000000440455545666333566405000045045504B9
:2033C000444000000007777700666656656667777700222222222222222222222222222256
:2033E0002222222222222222222222227777777777770057777700657777000000000004CF
:203400004400456663366366364655005465400000040000007777770006665566655777CE
:2034200077002222222222222222222222222222222222222222222222222777777777776B
:203440007700000777770057777777000000044040040564056556563656655500000000F7
:2034600004440000077777777777777777777777777777777777777777777222222222221E
:2034800022222222222222222777777777777777000000677777007777777770000440448B
:2034A0004400000004005656635565000000040045400000777777777777777777777777DE
:2034C00077777777777777777777722222222222222222222222777777777777777777002F
:2034E00000006667777707777777777700444404445555000044545663645540404000046F
:20350000455440077777777777777777777777777777777777777777777770022222222297
:20352000222277777777777777777777777700000065566777770007777777777044404587
:203540005545400555554455556544556366655545440077777777777777777777777777DF
:203560007777777777777777777770022222222222222777777777777777777770000000A1
:203580006666666777770000077777777744044554545636666655556665556655455555C0
:2035A000455077777777777777777777777777777777777777777777777770022222222254
:2035C000222222777777777777777777700000566666666777770000007777777774405425
:2035E00055566544044555556365565500000004545407777777000000000000000007777B
:2036000077000000000000000000000222222222222222777777777777007777700555665B
:2036200066666667777700000000777777774455555400000005555456654564450000008E
:20364000455444077770000000000000000007777700000000000000000000022222222220
:20366000222222277777700000007777700556666666666777770000000007777777755583
:2036800055000000554466545665456565666664455444007000002222245566666667776E
:2036A0007700332222222222222222222222222222222222000000000000777770056666EF
:2036C0006666636777770000000000777777705554566363655566455555545555566655AE
:2036E0004777777777777777777777777777777777777777777777777777777777772222C4
:20370000222222222000000222227777700666666666666777770000000000077777770593
:20372000455666665555555556655456666555656777777777777777777777777777777784
:2037400077777777777777777777777777772222222222222222222222227777700666661F
:203760006666366777770000000000077777700565666665666665455555555563633656D6
:20378000577777777777777777777777777777777777777777777777777777777777002235
:2037A00022222222222222222222777770066666666366677777000000000004777700000F
:2037C000566666633636555556655555566666665777777777777777777777777777777711
:2037E00077777777777777777777777777770022222222222222222222267777700666669D
:203800006663665777777000000000044770000556666636636555555655555556663636BD
:20382000677777777777777777777777777777777777777777777777777777777777002284
:2038400022222222222222222255777770066666663665577777700000000004570000564A
:2038600066663366666656555665545555666666665000000000000000000000000007774D
:203880007700000000000000000000000000002222222222222222222555777770066666D5
:2038A000666665577777700000000004455005563636366656666555566655555556663603
:2038C00065600000000000000000000000000777770000000000000000000000000000220C
:2038E000222222222222222255557777700666666366554777777000000000444550556687
:2039000063336666663665556663654556566666655555000022222222222222220446603B
:2039200000006666556636222222222222222222222222222222226555557777700666666B
:2039400066655527777770000000004454555566336336663666545636336554563663632E
:203960006555550002277777777777777777777777777777777777777777222222222222F7
:203980002222777777777777777777777777777777777777777777777777777777777776F2
:2039A000633333366366555563333655443663666655450022277777777777777777777742
:2039C0007777777777777777777722222222222222227777777777777777777777777777AF
:2039E000777777777777777777777777777777766633333333655555636336555453663683
:203A0000655455552227777777777777777777777777777777777777777700222222222204
:203A2000222277777777777777777777777777777777777777777777777777777777777057
:203A4000066333363654566566666655545666666555544522277777777777777777777710
:203A6000777777777777777777770022222222222222777777777777777777777777777730
:203A80007777777777777777777777777777777006666633654556666663654555463666A8
:203AA000655554552227777777777777777777777777777777777777777700322222222254
:203AC0002222777777777777777777777777777777777777777777777777777777777770B7
:203AE0000666366365655500465654004556666665555436222777770000000000000000D0
:203B0000000000000000000777770033332222222222220000000000000077777000000020
:203B2000000000007777770000000000000000000666636665364440444444444556666655
:203B40005555546322277777000000000000000000000000000000077777003363332222CB
:203B600022222200000000000000777770000000000000007777770000000000000000001C
:203B8000056666666666666665456555555566655555456622277777777777777777777739
:203BA0007777777777777777777700033363362222222266555555566666777770050222FA
:203BC00022222222777777000005545745455555555566666636666663666655555556654D
:203BE00055555552222777777777777777777777777777777777777777770005363332221D
:203C00002222222465555566666677777004222222222222777777000045447777755565A0
:203C20005566666636666666633365555555555555554552222777777777777777777777C1
:203C4000777777777777777777770000316332222222220555555666666677777002222295
:203C60002222222277777700005554777777555655666666663666666663655555555555D8
:203C80005555562222277777777777777777777777777777777777777777000013333222D3
:203CA00022222605555566666666777770022222222222222777777000455777777005564D
:203CC000656665656633666566556555556555555555522222277777777777777777777705
:203CE000777777777777777777770003333113221222311445566666666677777002222232
:203D0000222222222777777000000777777000665666665653666565456544565555555538
:203D200055556222222220000000000777770000000777770000000000000033111113128D
:203D4000113116314456666666667777700222222222222227777770000077777700055637
:203D6000656666665636665554445444565555555555222222222000000000077777000099
:203D8000000777770000000000000033331113311311113604556666666677777002222273
:203DA0002277722227777770000077777700055655666656566664444044044445555555A6
:203DC000565522222222222222222227777700222227777700613331311333333131113185
:203DE0003111113045556666666677777002227777777222277777700007777770005555FF
:203E00005666666666664044000000404555555555577777777777777777777777770022E4
:203E200022677777777777777777777777771113111111104455566666657777707777771B
:203E4000777770022777777702077777700055566666666666555404444444445555555555
:203E60006557777777777777777777777777002222277777777777777777777777771111D1
:203E8000111131004455566666557777777777777777700222777777027777770005455508
:203EA0006666656666555554555565445555555556677777777777777777777777770022ED
:203EC0002227777777777777777777777777001111133100445555666557777777777777C5
:203EE00077777002227777770777777700054455556666666666555445565445555555554D
:203F00005607777777777777777777777777002222277777777777777777777777770011A0
:203F200011131110155555657777777777777777770000022277777707777770005445451D
:203F40005566665666656555544544556555555656077777777777777777777777770022BB
:203F6000222777777777777777777777777700111131131114577777777777777777770053
:203F80000000000222777777777777000040544555666555666566655444555655555555B8
:203FA000600000000000000000000007777700313117777700000000000000000000001134
:203FC0001111111777777777777777777700000000002222222777777777770005544544A6
:203FE000455555556655566555555556555555551000000000000000000000077777003326
:204000003337777700000000000000000000001111177777777777777777777770000000F9
:20402000222222222227777777777000645540545555555566655555655555556556555584
:2040400010000111222222222263333777770037333777770011111111111111111113118D
:20406000111177777777777777777777700022222222222222277777777700003444444417
:20408000445555456555555656665655655655550000011112222222633313377777003331
:2040A000311777777777777777777777771111111113377777777777000077777002222216
:2040C0002222222222277777777000013645450545555555566666666363665666565555C0
:2040E000000001177777777777777777777700111117777777777777777777777731311139
:20410000111111777777000000007777700222222222226333777777777000111350444023
:2041200044455555566666666636336666655554000001177777777777777777777700114C
:20414000110777777777777777777777770011311131311770000000000177777002222249
:204160002222233137777777777001111335704440445554556666363363636665555554D0
:204180000000011777777777777777777777000111077777777777777777777777003111E9
:2041A000111111110000001111117777700222222220111177777777777701111133777475
:2041C000045045555556666636363666655555400000111777777777777777777777000154
:2041E00010077777777777777777777777001131111111111001111111117777700331110D
:204200001133107777777777777701111113777774045455455666666666665655554440A7
:2042200000000117777777777777777777700001001777770000000000000000000013119D
:20424000111111111111111111117777700111111113377777777777777770111111777706
:2042600070404545545556566556555555545440000010101000000000000077777000017E
:2042800001177777000000000000000000001131113111111111111111117777700111118B
:2042A0001117777777777077777770111117777770004054554555555555555554504040CE
:2042C00000001111100000000000007777700010011777770011111111111111111111117D
:2042E0001111111111111111111177777001111111777777777700077777770111177777AC
:2043000070000040445454555555555545544400000010111111111777777777777000004D
:204320001117777777777777777777777777773311311111111111111111777770011111CC
:2043400077777777770000037777770111177777700000000445555555555554504404013C
:204360000100777777777777777777777700000111177777777777777777777777777711DA
:20438000111111111111111111117777700331777777777770000013777777701117777720
:2043A0000000004440404445555445444404401777777777777777777777777777000001D3
:2043C000111777777777777777777777777777001131111111111111111177777001777793
:2043E00077777770000000113777777711177777000000004444404040000404044401305C
:2044000077777777777777777777777777001011111777777777777777777777777777003D
:204420001311111111111111111177777007777777777700000100111377777771777777B8
:204440000031100040444444404444444440531077777777777777777777777770001011F7
:20446000111777777777777777777777777777001111111111111111111177777001177772
:204480007777000001110001137777777777777700311000404040444544444444433310A7
:2044A00017777777777777000007777770000011111777770000000000000000000000008F
:2044C00011111111177777777777777770011077770000001111100111377777777777778C
:2044E0000010110044455555544444456337330117777700000000000077777700010011FD
:20450000111777770000000000000000000000001111111117777777777777777001111750
:20452000700000111111110011317777777777700010001044444444455633777773311121
:204540001110000000000000177777770001001111177777001111111111111111111131BB
:20456000111111111177777777777777700111110000111111111100111117777777777038
:2045800000111337777333777777777777733111111000001111371777777770001100119C
:2045A000111777770011111111111111111111111111111111777777777777770001111171
:2045C000100001111111111111131177777777000111133777777777777777777733331162
:2045E00031131111111137777777770000110011111777770011111111111111111111112D
:204600001111111111777777777777700001111111100111111111111113311777777700A0
:20462000011113777777777777777777737373111313111111113377777770000111101117
:2046400011177777001111111111111111111111111111111117777777777000001111119E
:204660001110011111111111111131110777700011100137777777777777777777777311EE
:20468000111131131111371077770000111110011117777700111111111111111111111159
:2046A000111111111111000000000000011111111110111111111131111131111000000045
:2046C000110000117777777777777777777771111131131111113311070000011131100169
:2046E00011177777001111111111111111111111111111111111100000000001111111112E
:20470000111011111111131111111331131000011311111337777777777777777777711354
:20472000131131111111331111000031111311011111100000111111111111111111111148
:204740001111111111111111111110111111111111000113311111311111131113331111F3
:2047600011131133777777777777777777773111133331111113331111101331111331003F
:2047800011111000001111111111111111111111111111111111111111111001111111112D
:2047A0001110011111111111111113311331131111111133337777777777777777373131CA
:2047C000131313311113331111113333111131001111111313111111111111111111111118
:2047E000111111111111111111111011111111111111111111111113111111111131331156
:20480000311111333333777777777777773731113331131111133111111113311111131158
:20482000111111111111111111111111111111111111111111111111111110011111111169
:20484000111111111111111111111331133113111111113333777777777777777737313118
:204860001313111111133311111133331111111111111113131111111111111111111111A8
:204880001111111111111111111111001111111111111111111111111111113311331131A5
:2048A00011111113333777777777777777737313113111111111111111111333311111119A
:2048C000111111113131111111111111111111111111111111111111111111011111111188
:2048E0001111111111111111111111331133113111111113333777777777777773731311C0
:204900003131111111111111111333311111111111111131311111111111111111111111B3
:20492000111111111111111111111111111111111111111111111111111111111113133133
:204940001311111333333777777777777373111333111111111111111111311111111111C3
:20496000111111111111111111111111111111110000000000000000000000000000000027
:20498000000000000000000000000000000000000000000000000000000000000000000017
:2049A0000000000000000000000000000000000000000000000000000000000000000000F7
:2049C0000000000000000000000000000000000000000000000000000000000000000000D7
:2049E0000000000000000000000000000000000000000000000000000000000000000000B7
:204DE0002222222222222222222220000000000000000002222222222222222222222222A5
:204E0000222222222222222222222222222222222222222222222222222222222222222252
:204E20002222222222222222222222222222222222222222222222222222000000000000FE
:204E400000000000222222222222222222222222222222222222222222222222222222229A
:204E60002222222222222222222222222222222222222222222222222222222222222222F2
:204E80002222222220000222222200777777777777777700222222222222222222222222B2
:204EA0002222222222222222222222222222222222222222222222222222222222222222B2
:204EC000222222222222222222222222222222222222222200000022222200777777777771
:204EE000777777002222222222222222222222222222222222222222222222222222222295
:204F0000222222222222222222222222222222222222222222222222222222222222222251
:204F2000222222200077002222220077000000000000770022222222222222222222222288
:204F4000222222222222222222222222200000002222222222222222222222222222222279
:204F6000222222222222222222222222222222222222220007770022222200770000000050
:204F800000007700222222222222222222222222222222222222222222222220000000006C
:204FA0000000222222222222222222222222222222222222222222222222222222222222F5
:204FC0002222000077770022222200770000000000007700222222222222222222222222B3
:204FE000222222222222222222222200000000000000002222222222222222222222222281
:2050000022222222222222222222222222222222222000077777002222220077000000005C
:2050200000007700222222222222222222222222222222222222222222200000000000000F
:205040000000000002222222222222222222222222222222222222222222222222222222B8
:205060002200077777770022222200777777777777777700222222222222222222222222EC
:2050800022222222222222222220000000000000000000000000222222222222222222226A
:2050A000222222222222222222222222222222222200777707770022222200777777777789
:2050C0007777770022222222222222222222222222222222222222222200000000000000A1
:2050E00000000000000000222222222222222222222222222222222222222222222222225E
:20510000220077700777002000000000000000000000000000022222222222222222222292
:2051200022222222222222222200000000000000000000000000000022222222222222222D
:2051400022222222222222222222222222222222220070000777000000000000000000001F
:205160000000000000002222222222222222222222222222222222222000000000000000AB
:205180000000000000000000022222222222222222222222222222222222222222222222FF
:2051A0002200000007770000777777777777777777777777770022222222222222222222F0
:2051C000222222222222220000000000000000000000000000000000000222222222222213
:2051E0002222222222222222222222222222222222200020077700007777777777777777F7
:205200007777777777002222222222222222222222222222222220000000000000000000FB
:20522000000000000000000000002222222222222222222222222222222222222222222282
:2052400022222220077700000000007700000000000000000000222222222222222222227F
:205260002222222222220000000000000000000000000000000000000000022222222222B6
:20528000222222222222222222222222222222222222222007770020000000770000000053
:2052A0000000000000022222222222222222222222222222222000000000000000000000CE
:2052C000000000000000000000000222222222222222222222222222222222222222222202
:2052E000222222200777002222220077000000000000000022222222222222222222222235
:20530000222222222200000000000000000000000000000000000000000000222222222239
:20532000222222222222222222222222222222222222222007770022222000777777777792
:205340007777770022222222222222222222222222222222200000000000000000000000A8
:20536000000000000000000000000002222222227222222222222222222222222222222233
:205380002222222007771062622007777777777777777700222222222222222222222222BE
:2053A0002222222220000000000000000000000000000000000000000000000222222222BB
:2053C0001222222222222222222222222222222222222220077704221220077000000000EA
:2053E0000000770022222222222222222222222222222222200000000000000000000000F6
:20540000000000000000000000000000222222222272222222222222222222222222222294
:2054200022222220077720622220077000000000000077002222222222222222222222221E
:2054400022222222200000000000000000000000000000000000000000000000222222221C
:2054600022222222222222222222222222222222222222200777012222200000022222223B
:20548000220077002222222222222222222222222222222220000000000455554400000041
:2054A000000000000000000000000000022222222262726222222222222222222222222294
:2054C000222222202777502222220000222222222000700022222222222222222222222242
:2054E0002222222200000000045555555555440000000000000000000000000002222222CB
:20550000222212221222222222222222222222222222222407770022222222222222000095
:20552000000770022222222222222222222222222222222200000000055555566666555557
:205540004000000000000000000000000022222222226272622222222222222222222222B5
:20556000222222615777002222222222222000000007700222222222222222222222222299
:2055800022222222000000004555566676666665554000000000000000000000002222228B
:2055A000222226272222222222222222222222222222222217770022222222222220077742
:2055C000777700022222222222222222222222222222222200000000555566737377666682
:2055E0006555540000000000000000000022222222226272727222222222222222222222E7
:2056000022227271540000222222222222200077777000222222222222222222222222220B
:2056200022222222000000004555663777373776666555500000000000000000000222229A
:205640002222222213222222222222222222222222221726000002222222222222220000C8
:20566000000002222222222222222222222222222222222200000004555566737373737393
:205680007666655540000000000000000002222222222222727262222222222222222222EE
:2056A0002272327222222222222222222222200000002272222222222222222222722222C2
:2056C000222222220000000455556677377777373777666555400000000000000002222207
:2056E000222222222627262222222222222222222227262222222222222222222222222254
:20570000222222272222222222222222272222222222222200000004555566737666667797
:20572000736366655555400000000000002222222222222262767262222222222222222234
:20574000727672222222222222222222222222222222222272222222222222227222222275
:20576000222222220000004555556637373666636666666665555440000000000022222293
:205780002222222222231726122222222222222213231222222222222222222222222222FD
:2057A0002222222217222222222222271222222222222222000000545556667773776666C5
:2057C000666666666555555000000000002222222222222222627676222222222222227214
:2057E000777222222222222222222222222222222222222222722222222222722222222224
:205800002222222200000455556667373737673666666666555555500000000000222222F6
:20582000222222222222232727222222222226272322222222222222222222222222222213
:20584000222222222227222222222722222222222222222200000555556673737777376610
:205860006666666655555550000000000022222222222222222262767372222222227673E1
:20588000722222222222222222222222222222222222222222637222222273222222222296
:2058A000222222220000054004566677373377666666665555555540000000000022222271
:2058C0002222222222222223172612222226132712222222222222222222222222222222B4
:2058E00022222222222267222227122222222222222222222000450000005666677736662B
:20590000666666655555554000000000002222222222222222222262727372222276767202
:2059200022222222222222222222222222222222222222222222677222772222222222223D
:205940002222222220004540000004566666766666666655555555400000000000222222EC
:205960002222222222222222272726222727372222222222222222222222222222222222BA
:20598000222222222222227767222222222222222222222220005545555440556666666536
:2059A0005544444055555550000000000222222222222222222222227237377273737262F7
:2059C000222222222222222262222222222262222222200000000027772222222222222237
:2059E00022222222220055555566654555665555440000004455555500000000022222229A
:205A00002222222222222222222767632737122222222222222222222222222222221222C1
:205A20002222000000000017372222222222222222222222220055440000455455555544C7
:205A40004555444454555555400000000222222222222222222222222262737737722222BE
:205A60002222222222222222226222222262222222220066666666762772222222222222CF
:205A8000222222222210554004000055566554455666655555555555400000002222222278
:205AA0002222222222222222222227377311000000000000000000000002222222222222E2
:205AC000222200666666676002772222222222222222222222255555566555555666545501
:205AE000545566555555555540000000222222222222222222222222222273773761000050
:205B000000000000000000000000726272222222222200666666776002637222222222220B
:205B20002222222222264555555556655666555404000455445555554000000022222222C9
:205B40002222222222222222222617636767666666666666666666666600222210000022CD
:205B6000222200666667666002226722222222222222222222225555555556555665566572
:205B8000564000045554555540000002222222222222222222222222227637717376666649
:205BA000666666666666666666002267200000000022006666766660022226722222222238
:205BC00022222222222655555666665566655555566665555555555500000002222222220B
:205BE000222222222222222227272311676367666666666666666666660026126666600082
:205C0000000200666366666002222227222222222222222222265556666665556765556610
:205C20005455555555555555000005622222222222222222222222227673724066377366AD
:205C40006666666666666666660072107666666660020066766666600222222272222222DA
:205C60002222222222265566666655566665556666555555555555540000556222222222A5
:205C80002222222222222226132712006667676666666666666666666604120066666666C6
:205CA00060020067666666600222222217222222222222222226556666665555666555661D
:205CC0006666666555555555000055622222222222222222222222767732220066663676F3
:205CE000666666666666666666212200666666666002007666666660022222222272222289
:205D00002222222222265566666555566665556666666666555555540455552222222222B9
:205D20002222222222222623672222006666636766666666666666666600200066666666BF
:205D4000600201666666666002222222222222222222222222265566655455666766556671
:205D600066666666555554544565562222222222222222222222767272622200666666763D
:205D8000767000006666666666002006666666666002006666666660022222222222222217
:205DA00022222222222655565404556376655556666666665555555455555622222222223D
:205DC00022222222222213671222220056665666631400000666566666002006566656660C
:205DE00050020066566656600222222222222222222222222226555540455566636556545D
:205E0000566666665555555455555222222222222222222222727272222222006666666603
:205E20007671202006666666660020066666666600020066666666600222222222222222F5
:205E40002222222222264454455545566655565445666666555555545555622222222222C0
:205E6000222222222227272222222200665666566667110006566656660020066656665630
:205E8000002200566656665002222222222222222222222222265544555544555555555528
:205EA0005456666555545545555622222222222222222222727232222222220066666666F5
:205EC000663671200666666666000006666666660000006666666660000000000000000061
:205EE00000002222222655555555444555444455554556555555454555522222222222221B
:205F000022222222132612222222220056565656566666110656565656000056565656568F
:205F200050000656565656560000000000000000000002222226555555455444400045553B
:205F40006665455554555450000222222222222222222262727222222222220066666666D3
:205F600066666671666665666500006665666566656665666566656665666566656665662E
:205F80006560022222264555544555540445555556654445455544500022222222222222A1
:205FA000222222262622222222222200565656565656666666565656560000565656565627
:205FC000565656565656565656565656565656565650022222225555540045665555655546
:205FE000556655455555555000222222222222222222627272222222222222006665666523
:20600000666566667665666566000665666566656665666566656665666566656665666584
:206020006660022222226555554004456555555544555555555545500222222222222222C4
:206040002222122612222222222222005656565656565656566656565600065656565656C4
:2060600056565656565656565656565656565656565002222222255555544554044444006A
:20608000045555555555455022222222222222222222727222222222222222006565656504
:2060A000656565666676656565606565656565656565656565656565656565656565656532
:2060C000656002222222225556544455565540045555555655544550222222222222222247
:2060E00022222622222222222222220056565656565656565666565656565656565656565E
:206100005656565656565656565656565655565556500222222222555554445555555566F5
:206120006655555555545545222222222222222262727222222222222222220065656565BD
:2061400065656565656676656565656565656565656565656565656565656565656565658D
:206160006560022222222225555545666555556666555565544555676222222222222222C7
:2061800012222222222222222222220055565555555555555556565655555555555550004B
:2061A000000005555555555500000000000000000000022222222226555544455545555609
:2061C00065555555444456777222222222222222226222222222222222222200656565655C
:2061E000656565656565656565656565656500000000006565656560000000000000000025
:2062000000002222222222265555554444555566555545544405777732222222222222227D
:206220002222222222222222222222005555555550555555555556565555555555550022CF
:2062400022220055555555500222222222222222222222222222222265555555555555658E
:2062600055545544005737777222222222222222622222222222222222222200656565652D
:20628000000565656555656565656555655000222222005565556550022222222222222258
:2062A000222222222222222265665666665555555655554056777777762222222222222283
:2062C0002222222222222222222222005555555500005555555555555555555555500222D9
:2062E0002222005555555550022222222222122222222222122222222566666766666655F7
:2063000065455446777777773722222222222222222222222222222222222200555555556E
:206320000000555555555555556555555500022222220055555555500222222222222222AA
:206340002222222222222222255666736766666654554573777777777302222222222222C2
:206360002222222222222222222222005555555500000055555555555555555555002222BD
:20638000222200555555555002222222222222222222222222222222275566677676665525
:2063A000545573777777777770002222222222222222222222222222222222005555555568
:2063C000002000055555555555555555500022222222005555555550022222222222226244
:2063E0006222627222222202236555666666655456777777777777770000022222222222D2
:2064000022222222222222222222220055555555000000555555555555555555000222226F
:206420002222005555555550022222222222222212221222222000000077555556555405B5
:20644000737777777777777600000022222222222222222222222222222222005555555515
:2064600000005555555555555555555000000000000000555555555000000000000000002B
:206480002172722222200000000360554500000007777777777777700000000222222222CB
:2064A00022222222222222222222220055555555505555555555555555555545000000002B
:2064C0000000054555455545000000000000000005172222220000000000000000000000BC
:2064E00006777777777777000000000022222222222222222222222222222200555555557A
:206500005555555555555555555555555555555555555555555555555555555555555555DB
:206520007162622000000000000000000000000007777777777770000000000002222222D4
:206540002222222222222222222222004555455545554555455545554550454545554545E6
:20656000454545454545454545454545454545454102000000000000000000000000000088
:20658000077777777776000000000000002222222222222222222222222222005555555572
:2065A0005555555555555555550005555555555555555555555555555555555555555565D0
:2065C00070002410000000000000000000000000177777777770000000000000000222226E
:2065E000222222222222222222222200554555455545554545454545450005454545454506
:206600004545454545454545454545454545454540000140000000000000000000000000A9
:20662000777777777700000000000000000002222222222222222222222222005555555519
:2066400055555555555555555500055555555555555555555555555555555555555555751F
:2066600050000010100000000001710000000000377777777000000000000000000000220A
:206680002222222222222222222222004545454545454540454545454500054545454545AA
:2066A00045454545454545454545454545454545400000040000000000737710000000004C
:2066C000777777770000000000000000000000002222222222222222222222005455545516
:2066E000545550000455545554000455545554555455545554555455545554555455645548
:206700005000000040000000077777700000000777777770000000000000000000000000A8
:20672000222222222222222222222200454545454540000005454545450000000000000031
:20674000000005454545454500000000000000000000000000000000737777700000000307
:206760007777771000000000000000000000000022222222222222222222220055545554DC
:20678000500000200554555455000000000000000000005455545550000000000000000090
:2067A000000000000000000137777770000000777777770000000000000000000000000067
:2067C000222222222222222222222200454545450000222005454545450022222222222208
:2067E000222200454545454002222000000000000000000000000007737777770000017766
:20680000777770000000000000000000000000002222222222222222222220005454545456
:206820000022222004545454540022222222222222220054545454500222000000000000CC
:206840000000000000001173777777777000077777770000000000000000000000000000FC
:20686000222222222222222222222005454545450022222005454545450022222222222242
:2068800022220045454545400222000000000000000000000000773777777777770077774D
:2068A000777600000000000000000000000000002222222222222222222220045454545423
:2068C00000222220045454545400222222222222222200545454545002200000000000002E
:2068E00000000000000173777777777777777777777000000000000000000000000000000E
:206900002222222222222222222220054445444000222220044544454400222222222222AB
:206920002222004544454440022000000000000000000000000777777777777777777777F2
:2069400077000000000000000000000000000000222222222222222222220004545454501C
:2069600002222220045454545400222222222222222200545454545002200000000000008B
:206980000000000000077777777777777777777776000000000000000000000000000000D4
:2069A0002222222222222222222200444544454002222220054445444500222222222222E8
:2069C000222200444544454002000000000000000000000000777777777777777777777702
:2069E000700000000000000000000000000000002222222222222222222200545454545033
:206A000002222220045454545400222222222222222200545454545002000000000000000A
:206A2000000000000037777777777777777777771000000000000000000000000000000069
:206A400022222222222222222220004444444440022222200444444444002222222222224E
:206A6000222200444444444002000000000000000000000000777777777777777777777763
:206A8000000000000000000000000000000000002222222222222222222004545454540050
:206AA00002222220045454545400222222222222222200545454545000000000000000006C
:206AC000000000000777777777777777777777700000000000000000000000000000000099
:206AE0002222222222222222220004444444440022222220044444444400000000000000B6
:206B000000000044444444400000000000000000000000000377777777777777777777106C
:206B200000000000000000000000000000000000222222222222222222005454545454007F
:206B4000222222200454545454500000000000000000045454545454000000000000000063
:206B6000000000000777777777777777777777000000000000000000000000000000000068
:206B8000222222222222222220004444444440000000000004444444444444444444444485
:206BA000444444444444444444444444444444444444400017777777777777777777700017
:206BC000000000000000000000000000000000002222222222222222200444544454400011
:206BE000000000004454445444544454445444544454445444544454445444544454445445
:206C0000445440007777777777777777777770000000000000000000000000000000000086
:206C20002222222222222222000444444444400444444444444444444444444444444444AC
:206C40004444444444444444444444444444444444444000377777777777777777770000C6
:206C600000000000000000000000000000000000222222222222222000445444544400048E
:206C8000544454445444544454445444544454445444544454445444544454445444544474
:206CA00054445000777777777777777777710000000000000000000000000000000000004C
:206CC00022222222222222200444444444440004444444444444444444444444444444440A
:206CE0004444444444444444444444444444444444444001777777777777777777700000EC
:206D00000000000000000000000000000000000022222222222222200454445444500000E1
